:100000000C940C010C9434010C9434010C943401C4
:100010000C9434010C9434010C9434010C9434018C
:100020000C9434010C9434010C9434010C9434017C
:100030000C9434010C9434010C9434010C9434016C
:100040000C94440E0C9434010C9470130C94AC1367
:100050000C9434010C9434010C9434010C9434014C
:100060000C9434010C9434014469646E2774206646
:10007000696E6420504E35337820626F617264007F
:10008000466F756E64206368697020504E35004677
:1000900069726D77617265207665722E200043610A
:1000A0006E206E6F742064657465726D696E652074
:1000B0007461672074797065005741524E494E470C
:1000C0003A20546167206973206E6F7420666F72E6
:1000D0006D61747465642E005265616420666169A7
:1000E0006C656420004572726F722E204661696CE7
:1000F00065642072656164207061676520004572E7
:10010000726F722E204661696C656420726561644D
:1001100020626C6F636B2000546167206973206EEE
:100120006F74204E44454620666F726D617474652D
:10013000642E004572726F722E20426C6F636B20CA
:1001400041757468656E7469636174696F6E206669
:1001500061696C656420666F72200052656164207D
:100160006661696C656420004572726F722E20436F
:10017000616E2774206465636F6465206D657373B9
:10018000616765206C656E6774682E005741524E3A
:10019000494E473A20546F6F206D616E7920726529
:1001A000636F7264732E20496E637265617365209C
:1001B0004D41585F4E4445465F5245434F5244536C
:1001C0002E000000000700020100000304060000EA
:1001D000000000000000010204081020408001021D
:1001E000040810200102040810200404040404047C
:1001F00004040202020202020303030303030000D9
:100200000000250028002B0000000000240027002B
:100210002A008D0167149A0111241FBECFEFD8E088
:10022000DEBFCDBF11E0A0E0B1E0E2E0FFE202C03E
:1002300005900D92A637B107D9F712E0A6E7B1E015
:1002400001C01D92AC33B107E1F712E0C6E1D2E084
:1002500004C02297FE010E94DB14C231D107C9F706
:100260000E94C7120C9474170C94000040E855E2E9
:1002700060E070E081E991E00E94E71386E791E099
:100280000C948703CF93DF93CDB7DEB764970FB697
:10029000F894DEBF0FBECDBF86E791E00E94DD037C
:1002A000882391F166E771E0CE0101960E94F20386
:1002B00062E171E081E991E00E944510BE016F5F4B
:1002C0007F4FCE010E960E943C05BE01625F7F4FBC
:1002D00081E991E00E940F10CE010E960E947311E9
:1002E0006AE171E081E991E00E94451081E991E0C5
:1002F0000E944E1060E971E080E090E00E94B80E2C
:10030000CE0101960E94240564960FB6F894DEBFD4
:100310000FBECDBFDF91CF9108954AE067E871E04D
:1003200081E891E00E94CA0161E871E086E791E00E
:100330000C94610386E791E00C948203CF93DF93E2
:10034000EC0160E08C810E947B0F62E070E080E055
:1003500090E00E94B80E61E08C81DF91CF910C9407
:100360007B0F61E0FC0184810E94430F0E94AA0B75
:1003700080E00E94D20B80E00E94C90B85E00C94C3
:10038000D70B8EBD0DB407FEFDCF8EB5089580E06E
:100390000C94C101FC0181E291E09183808315827C
:1003A00073836283448308951F93CF93DF93EC019B
:1003B00060E08C810E947B0F82E00E94C1010E945C
:1003C000C701182F61E08C810E947B0F812F817003
:1003D000DF91CF911F910895BF92CF92DF92EF925C
:1003E000FF920F931F93CF93DF938C01D62EB72EDE
:1003F000C42E7901C0E0D0E00EC061E070E080E082
:1004000090E00E94B80E2196E114F10421F0EC1660
:10041000FD0608F453C0C8010E94D401882369F383
:1004200060E0F80184810E947B0F61E070E080E071
:1004300090E00E94B80E83E00E94C1010E94C701B3
:10044000811134C00E94C701811130C00E94C701D0
:100450008F3F61F536C0F801C5810E94C701853D17
:1004600029F50E94C7019C2F9F5F98131FC031C0C0
:100470000E94C7010E94C701CCEFDFEF19C086EDD3
:10048000E82EEC0ECD2DDB2D04C00E94C701899310
:10049000E80E8C2F8D198F15C0F30E94C7018E0DA9
:1004A00029F40E94C701CF2DD0E002C0CDEFDFEFCD
:1004B00061E0F80184810E947B0F10C0CEEFDFEF76
:1004C0000DC00E94C701F82E0E94C7018F0D71F761
:1004D000C2CFFA94FA94CF1490F6CACFCE01DF912E
:1004E000CF911F910F91FF90EF90DF90CF90BF9031
:1004F00008958F929F92AF92BF92CF92DF92EF9228
:10050000FF920F931F93CF93DF937C01962E172FAB
:10051000A42EB22E832E60E0FC0184810E947B0F0A
:1005200062E070E080E090E00E94B80E81E00E94FE
:10053000C10180E00E94C10180E00E94C1018FEFF3
:100540000E94C101CA2DCF5FC00F8C2F0E94C10134
:100550008C2F81950E94C10184ED0E94C101C92D9B
:10056000D12F14ED07C06E0189910E94C101F601DF
:100570008081180F8C2F89198A15A8F3CB2DD82DBF
:1005800007C06E0189910E94C101F6018081180F98
:100590008C2F8B198017A8F3812F81950E94C101A0
:1005A00080E00E94C10161E0F7018481DF91CF9179
:1005B0001F910F91FF90EF90DF90CF90BF90AF9081
:1005C0009F908F900C947B0FCF92DF92EF92FF92CF
:1005D0000F931F93CF93DF93CDB7DEB72C970FB652
:1005E000F894DEBF0FBECDBF7C0186E0E6E0F1E00F
:1005F000DE01179601900D928A95E1F760E0F70110
:1006000084810E947B0F61E070E080E090E00E94B6
:10061000B80E83E00E94C1018E010F5F1F4F6E0173
:10062000F7E0CF0ED11C0E94C701F80181938F0122
:10063000EC15FD05C1F761E0F70184810E947B0F95
:1006400046E050E0BE01695F7F4FCE0101960E94F7
:10065000E6162C960FB6F894DEBF0FBECDBFDF9125
:10066000CF911F910F91FF90EF90DF90CF90089561
:100670000F931F93CF93DF93EC01FB0180818D8358
:10068000CE010E9479021AE008C061E070E080E0CB
:1006900090E00E94B80E115071F0CE010E94D4017A
:1006A000882399F3CE010E94E402882311F08FEF92
:1006B00003C080E001C08EEFDF91CF911F910F91B9
:1006C0000895EF92FF920F931F93CF93DF9300D083
:1006D000CDB7DEB78C0181E590E069837A830E9413
:1006E000B20F7C0169817A810E94E50BF801F182E9
:1006F000E0820F900F90DF91CF911F910F91FF90AB
:10070000EF900895FC01808191810C94B40FCF92F9
:10071000DF92EF92FF92CF93DF93EC018881998172
:100720000E94EB0B888199810E94040C6B017C0173
:10073000611571058105910539F468E670E081E97C
:1007400091E00E94EE0FFFCF60E870E081E991E058
:100750000E94EE0F4F2D55276627772720E130E0C6
:1007600081E991E00E94E1106FE870E081E991E099
:100770000E94EE0F4E2D50E060E070E02AE030E085
:1007800081E991E00E94D4106EE281E991E00E943B
:1007900047104D2D50E060E070E02AE030E081E944
:1007A00091E00E94E11088819981DF91CF91FF90C3
:1007B000EF90DF90CF900C945D0C0F931F93FC0192
:1007C000128611869C01275F3F4FAC014E5F5F4F41
:1007D00008EE13E060E0808191810E949A0C1F91E5
:1007E0000F910895EF92FF920F931F93CF93DF9392
:1007F000CDB7DEB72C970FB6F894DEBF0FBECDBFD6
:100800007C018B01FB0181859285049719F480E0BE
:1008100090E002C082E090E0811118C0F801608190
:100820007181CE010B960E943007F8012185328537
:10083000A8014E5F5F4FBE01655F7F4FC7010E94F9
:10084000A507CE010B960E94340729C08230C1F45F
:10085000F80160817181CE0101960E949C05F8012A
:1008600021853285A8014E5F5F4FBE016F5F7F4FCC
:10087000C7010E945906CE0101960E94A4050FC02F
:100880006EE970E081E991E00E94EE0FF801418588
:100890005285B8016E5F7F4FC7010E945D04C7019A
:1008A0002C960FB6F894DEBF0FBECDBFDF91CF916F
:1008B0001F910F91FF90EF900895CF92DF92EF92EA
:1008C000FF920F931F93CF93DF93EC017B016A019B
:1008D0008C010C5F1F4F60E571E0C8010E94E411BC
:1008E000F982E882DB82CA8269E271E0C8010E9473
:1008F00018121C861B86DF91CF911F910F91FF90DC
:10090000EF90DF90CF900895AF92BF92CF92DF9299
:10091000EF92FF920F931F93CF93DF93EC017B0134
:100920005A0169018C010C5F1F4F60E571E0C8013D
:100930000E94E411F982E882BB82AA82B601C80152
:100940000E9401121C861B86DF91CF911F910F918F
:10095000FF90EF90DF90CF90BF90AF9008958F926F
:100960009F92AF92BF92CF92DF92EF92FF920F933E
:100970001F93CF93DF93EC016B015A0149017C0176
:1009800084E0E80EF11C60E571E0C7010E94E4110B
:10099000D982C882BB82AA82B401C7010E94011217
:1009A00086E390E00E94B20F7C01B8010E941B090F
:1009B000FC86EB86DF91CF911F910F91FF90EF9016
:1009C000DF90CF90BF90AF909F908F9008956F92DF
:1009D0007F928F929F92AF92BF92CF92DF92EF92CF
:1009E000FF920F931F93CF93DF93EC016B015A019A
:1009F00049013C0184E0680E711C60E571E0C301AF
:100A00000E94E411D982C882BB82AA82B401C301C8
:100A10000E94011286E390E00E94B20F6C01A701D0
:100A2000B8010E949109DC86CB86DF91CF911F919E
:100A30000F91FF90EF90DF90CF90BF90AF909F907D
:100A40008F907F906F9008950F931F93CF93DF93B4
:100A50008C01FC01C385D485209731F0CE010E9422
:100A60005809CE010E94B40FC8010496DF91CF91BE
:100A70001F910F910C947311CF92DF92EF92FF921E
:100A80000F931F93CF93DF93CDB7DEB727970FB6A2
:100A9000F894DEBF0FBECDBF8C016B0160E571E045
:100AA0000E94E411E12CF12C2EC0E114F10429F094
:100AB0006FE471E0C8010E949212D601ED91FC91A1
:100AC000EE0DFF1D80818F3028F461E371E0C801D5
:100AD0000E949212D601ED91FC91EE0DFF1D6081F6
:100AE00040E170E0CE0101960E943212BE016F5FBC
:100AF0007F4FC8010E948B12CE0101960E94731194
:100B0000BFEFEB1AFB0AF60182819381E816F90622
:100B100060F2C8010E94B312C80127960FB6F8947C
:100B2000DEBF0FBECDBFDF91CF911F910F91FF9020
:100B3000EF90DF90CF900895FC0171836083118660
:100B400010861582148208950895CF93DF9300D004
:100B500000D0CDB7DEB7AE014F5F5F4F64E0FC0160
:100B6000808191810E94F00D882371F089818F3FEF
:100B7000C1F48A818F3FA9F48B818F3F91F481E08A
:100B80009C819F3F79F00DC065EE70E081E991E0B6
:100B90000E94EE0F4AE050E064E081E991E00E949B
:100BA000F51080E00F900F900F900F90DF91CF9194
:100BB00008950F931F93CF93DF9300D000D0CDB74C
:100BC000DEB78C01AE014F5F5F4F63E0FC018081B7
:100BD00091810E94F00D882341F08B81F8E08F9F76
:100BE000C0011124F801938382830F900F900F901E
:100BF0000F90DF91CF911F910F9108950F931F9345
:100C0000CF93DF93CDB7DEB72C970FB6F894DEBF46
:100C10000FBECDBF8C01AE014F5F5F4F64E0FC01A2
:100C2000808191810E94F00D811114C022C08A81BF
:100C3000F8018483158282E090E009C08E818330C0
:100C4000C1F48F81F8018483158287E090E0918759
:100C500080870FC0AE014B5F5F4F65E0F801808178
:100C600091810E94F00D882321F08981833031F732
:100C7000DECF2C960FB6F894DEBF0FBECDBFDF914E
:100C8000CF911F910F910895FC01248135818085BA
:100C90009185280F391F2F5F3F4FC9018370992716
:100CA000892B09F403C02C7F2C5F3F4F37832683A9
:100CB00008953F924F925F926F927F928F929F9290
:100CC000AF92BF92CF92DF92EF92FF920F931F935A
:100CD000CF93DF93CDB7DEB7ED970FB6F894DEBFB5
:100CE0000FBECDBF7C018B016A0159014DB65EB6C6
:100CF000CB010E94A5058823C9F069EB70E081E96A
:100D000091E00E94641063E371E0CE01C7960E94F7
:100D1000E4119E01295C3F4FA501B601C7010E9465
:100D20008404CE01C7960E9473117CC0C8010E9442
:100D3000D905C8010E94FE05C8010E944406F801B9
:100D400084819581892B49F4CE0101960E94FE0889
:100D5000CE0101960E94570A4DC0F8018681978105
:100D60002DB73EB7281B390B0FB6F8943EBF0FBE08
:100D70002DBF8DB69EB68FEF881A980A612C712C04
:100D800084E0382EA401460D571D632DF8018081A3
:100D900091810E94F00D811111C068ED70E081E930
:100DA00091E00E94EE0F4AE050E0632D81E991E06E
:100DB0000E94F510F8011582148211C0F801808597
:100DC000918524813581820F931F6816790638F446
:100DD0003394F4E06F0E711C2FE33212D3CFF8017D
:100DE0004481558160857185680D791DCE0101961C
:100DF0000E94910963E371E0CE01C7960E94E4115D
:100E00008E010F5F1F4F9E01295C3F4FA501B60168
:100E1000C7010E94AF04CE01C7960E947311C8019A
:100E20000E945809C7010FB6F8945EBE0FBE4DBEB2
:100E3000ED960FB6F894DEBF0FBECDBFDF91CF9118
:100E40001F910F91FF90EF90DF90CF90BF90AF90E8
:100E50009F908F907F906F905F904F903F900895FC
:100E6000FC0171836083089508956F3F71051CF440
:100E70006D5F7F4F02C06B5F7F4FCB018F709927F3
:100E8000892B39F077FF02C0615F7F4F607F605F21
:100E90007F4FCB010895CF93DF93FB0120E030E03B
:100EA000EF018191882391F08330B9F064E471E01F
:100EB00081E991E00E94451040E150E0688181E9BC
:100EC00091E00E94F5102EEF3FEF07C02F5F3F4FDC
:100ED0002031310529F72FEF3FEFC901DF91CF9185
:100EE0000895EF92FF920F931F93CF93DF938B019F
:100EF000EA0179010E944B0797FD06C0F801E80F4F
:100F0000F91F2081233041F068E671E081E991E02A
:100F10000E94641080E012C021812F3F41F4528171
:100F200040E02381422B59834883049603C02883E1
:100F300019820296F7019183808381E0DF91CF913E
:100F40001F910F91FF90EF9008952F923F924F9233
:100F50005F926F927F928F929F92AF92BF92CF9249
:100F6000DF92EF92FF920F931F93CF93DF93CDB752
:100F7000DEB7E0970FB6F894DEBF0FBECDBF3C01E1
:100F80005B014A01322E232E2DB73EB73FA72EA775
:100F900086E0ECE0F1E0DE01589601900D928A9532
:100FA000E1F719A218A21F8E1E8ECE0148969BA3B0
:100FB0008AA36C01E12C04E010E020E030E0432D36
:100FC000B401D5018D919C910E94310D8823D1F1FE
:100FD000AE014F5F5F4F64E0F501808191810E9417
:100FE0009F0D882389F09E01205E3F4FAE01425E37
:100FF0005F4FBE016F5F7F4FC5010E947107811176
:1010000039C061E571E010C06EEF70E081E991E0F8
:101010000E94EE0F4AE050E064E070E081E991E068
:101020000E94591167E571E0CE0141960E94E411DA
:101030009E012F5E3F4F432D522DB401C3010E94EC
:101040008404B7C068E171E081E991E00E94641016
:1010500067E571E0CE0101960E94E4119E012F5FC9
:101060003F4F432D522DB401C3010E948404CE0191
:101070000196A1C06E8D7F8DC5010E9435079FA38B
:101080008EA32DB73EB7281B390B0FB6F8943EBF81
:101090000FBE2DBF8DB79EB701969DA78CA71DA231
:1010A0001CA284E0482E512CFAA09BA198AB62C0F0
:1010B000C201AA2797FDA095BA2F88A799A7AAA72A
:1010C000BBA7AC01BD01D5018D919C910E94010D82
:1010D0008823E9F0CF2CD8A8E12C08A519A52AA5CA
:1010E0003BA5432DB401F501808191810E94310D12
:1010F00081110DC063E371E081E991E00E94EE0F80
:101100004AE050E0B20181E991E00E9459114CA5FA
:101110005DA52CA13DA1420F531F642DD5018D91DA
:101120009C910E949F0D81110DC06BE571E081E9DA
:1011300091E00E94EE0F4AE050E0B20181E991E0B7
:101140000E945911ECA1FDA17096FDA3ECA38201B0
:101150000F5F1F4FA801662757FD6095762FD501B9
:101160008D919C910E94160D882319F082010E5FCB
:101170001F4F2801ECA1FDA12EA13FA1E217F3070B
:101180000CF496CFEE8CFF8C08A119A18CA59DA51F
:10119000080F191F67E571E0CE0141960E94E41126
:1011A0009E012F5E3F4F432D522DB401C3010E947B
:1011B000E704CE0141960E947311C301AEA5BFA5FD
:1011C0000FB6F894BEBF0FBEADBFE0960FB6F89451
:1011D000DEBF0FBECDBFDF91CF911F910F91FF906A
:1011E000EF90DF90CF90BF90AF909F908F907F90C7
:1011F0006F905F904F903F902F900895EF92FF92E5
:101200000F931F93CF93DF938C01EC017C0184E358
:10121000E80EF11CCE010E947C0A2D96CE15DF054A
:10122000C9F7F80115AA14AADF91CF911F910F9168
:10123000FF90EF900895CF92DF92EF92FF920F937D
:101240001F93CF93DF93EC017B018C016C0184E34E
:10125000C80ED11CC8010E947C0A035F1F4F0C15E9
:101260001D05C1F7F70184A995A99DAB8CAB00E0E2
:1012700010E08DE0D82E0EC0D09EC001D19E900D02
:101280001124B701680F791F8C0F9D1F0E94AB0AB4
:101290000F5F1F4F8CA99DA90817190768F3DF91ED
:1012A000CF911F910F91FF90EF90DF90CF90089515
:1012B0000F931F93CF93DF938C01009751F0EC01B4
:1012C000E496C017D10729F02D97CE010E948B0A12
:1012D000F8CFDF91CF911F910F910895CF93DF93B6
:1012E000EC012CA93DA92430310588F44DE0429F42
:1012F000C001439F900D11248C0F9D1F0E94AB0ACB
:101300008CA99DA901969DAB8CAB81E007C06CE8D0
:1013100071E081E991E00E94641080E0DF91CF915B
:1013200008952F923F924F925F926F927F928F9289
:101330009F92AF92BF92CF92DF92EF92FF920F9364
:101340001F93CF93DF93CDB7DEB72F970FB6F894E7
:10135000DEBF0FBECDBF7C018B014A016C015C0179
:1013600084E3A80EB11CC6010E947C0AEDE0CE0EFB
:10137000D11CCA14DB04B9F7F70115AA14AAC12CB1
:10138000D12C78C05801AC0CBD1CF5017080F72D34
:10139000F074FF8773FA882780F98E87CE01019653
:1013A0000E947C0A672D6770CE0101960E94140B83
:1013B000F5014181442E512C74FE0AC03601F2E041
:1013C0006F0E711CF801E60DF71DC080D12C0DC009
:1013D000360185E0680E711CF5013480212CF8017E
:1013E000E60DF71D80816101C82AFE85FF2349F0C3
:1013F0008FEF681A780AF801E60DF71DA080B12C6E
:1014000002C0A12CB12CEFEF6E1A7E0AB801660D56
:10141000771D50E0CE0101960E94170B640C751CDD
:10142000FE85FF2351F0B801660D771DA501CE01A1
:1014300001960E94790B6A0C7B1CB801660D771D22
:10144000A601CE0101960E94480BC60CD71CBE0116
:101450006F5F7F4FC7010E946E098F85811105C0A4
:10146000CE0101960E948B0A05C0CE0101960E9412
:101470008B0A04C08C149D040CF084CF2F960FB6F9
:10148000F894DEBF0FBECDBFDF91CF911F910F91BA
:10149000FF90EF90DF90CF90BF90AF909F908F9094
:1014A0007F906F905F904F903F902F9008950F9393
:1014B0001F93CF93DF938C018DE090E00E94B20FD9
:1014C000EC010E947C0A60E0CE010E94140BBE0178
:1014D000C8010E946E09209751F0CE010E948B0A2C
:1014E000CE01DF91CF911F910F910C94B40FDF913A
:1014F000CF911F910F910895FC01108212821182E9
:101500001482138216821582108617821286118623
:10151000148613860895CF93DF93EC0189819A8115
:10152000892B21F08F8198850E947A158B819C816F
:10153000892B21F089859A850E947A158D819E815B
:10154000892B31F08B859C85DF91CF910C947A1596
:10155000DF91CF910895EF92FF920F931F93CF9356
:10156000DF93EC018B018617970709F455C0898139
:101570009A81892B21F08F8198850E947A158B8121
:101580009C81892B21F089859A850E947A158D810D
:101590009E81892B21F08B859C850E947A15F8010C
:1015A00080818883E180F280FA82E982838194815C
:1015B0009C838B83858196819E838D83E114F104C6
:1015C00059F0C7010E94DF148F839887F801678163
:1015D0007085A7010E94F316EB80FC80E114F104F2
:1015E00059F0C7010E94DF1489879A87F801618545
:1015F0007285A7010E94F316ED80FE80E114F104CC
:1016000059F0C7010E94DF148B879C87F80163851E
:101610007485A7010E94F316CE01DF91CF911F912F
:101620000F91FF90EF900895FC0160830895EF9271
:10163000FF920F931F93CF93DF9300D0CDB7DEB708
:101640007C018A01FC0121813281232B41F08781B9
:10165000908569837A830E947A157A816981C801AD
:1016600069837A830E94DF14F70187839087A8013A
:1016700069817A810E94F316F701018312830F902A
:101680000F90DF91CF911F910F91FF90EF900895F0
:10169000EF92FF920F931F93CF93DF9300D0CDB7BC
:1016A000DEB77C018A01FC0123813481232B41F0C8
:1016B0008185928569837A830E947A157A8169810E
:1016C000C80169837A830E94DF14F70181879287BA
:1016D000A80169817A810E94F316F70103831483BC
:1016E0000F900F90DF91CF911F910F91FF90EF908E
:1016F0000895EF92FF920F931F93CF93DF9300D043
:10170000CDB7DEB77C018A01FC0125813681232B10
:1017100041F08385948569837A830E947A157A8162
:101720006981C80169837A830E94DF14F701838786
:101730009487A80169817A810E94F316F7010583D5
:1017400016830F900F90DF91CF911F910F91FF9013
:10175000EF90089561E08DE00E94430F61E08BE01F
:101760000E94430F61E08AE00E94430F60E08DE039
:101770000E947B0F60E08BE00E947B0F61E08AE0BB
:101780000E947B0F8CB580618CBD8CB580648CBD54
:101790000895811103C08CB5806202C08CB58F7D25
:1017A0008CBD08959CB5937F982B9CBD08952CB556
:1017B000982F93702C7F922B9CBD9DB582FB882720
:1017C00080F99E7F982B9DBD0895815B9F4FFC0102
:1017D000718360830895CF93DF93EC01C15BDF4F8A
:1017E00088819981DC01ED91FC910190F081E02DDF
:1017F000099588819981DC01ED91FC910280F3814A
:10180000E02DDF91CF910994CF92DF92EF92FF927A
:101810000F931F93CF93DF93EC0182E08F876E01CC
:101820002FE4C20ED11CD6018D919C917E01BFE0A8
:10183000EB0EF11CDC01ED91FC910480F581E02DB3
:1018400000E020E030E041E0B7010995882321F075
:1018500000E010E0980126C0F60180819181DC0152
:10186000ED91FC910680F781E02D28EE33E040E415
:10187000B701099597FDECCF0F8510E020E030E02F
:10188000322F212F102F00278889082B322F212F4C
:10189000102F00278989082B322F212F102F002786
:1018A0008A89082BB801C901DF91CF911F910F914F
:1018B000FF90EF90DF90CF900895EF92FF920F93FB
:1018C000CF93DF93FC0194E1978781E0808B918B2C
:1018D000828B7F018FE4E80EF11CD7018D919C91E2
:1018E000EF012F96DC01ED91FC910480F581E02D54
:1018F00000E020E030E044E0BE010995811112C013
:10190000F70180819181DC01ED91FC910680F781E6
:10191000E02D28EE33E040E4BE01099521E01816E1
:1019200019060CF020E0822FDF91CF910F91FF90EC
:10193000EF9008956F927F928F929F92AF92BF9295
:10194000CF92DF92EF92FF920F931F93CF93DF938B
:10195000EC015A01490138018AE48F8781E0888BC4
:10196000698B6E012FE4C20ED11CD6018D919C9122
:101970007E01BFE0EB0EF11CDC01ED91FC910480D7
:10198000F581E02D00E020E030E043E0B70109956B
:10199000882311F080E026C0F60180819181DC016E
:1019A000ED91FC910680F781E02D930140E4B701B1
:1019B000099597FDEFCF8F85813061F78C89F40110
:1019C000808320E00BC0822F90E0FE01E80FF91F1A
:1019D0003589F501E80FF91F30832F5F8C892817AF
:1019E00090F381E0DF91CF911F910F91FF90EF90E5
:1019F000DF90CF90BF90AF909F908F907F906F902F
:101A00000895403851056105710528F44370552744
:101A10006627772704C04F7055276627772781E010
:101A2000452B462B472B09F080E00895DB01CA01C6
:101A30000196A11DB11D403851056105710528F4BD
:101A400083709927AA27BB2704C08F709927AA27DC
:101A5000BB2721E0892B8A2B8B2B09F020E0822FDA
:101A60000895AF92BF92CF92DF92EF92FF920F93C1
:101A7000CF93DF93EC01F42E5C0128E0A20EB11CA1
:101A800086E0F601D50101900D928A95E1F750E0CC
:101A9000CE010E94F316FF8280E48F8781E0888B5D
:101AA000EE2011F081E601C080E6898B0A8BDE0111
:101AB000539686E0F50101900D928A95E1F74F81EA
:101AC0009C2FEC2FFD2F02C08191808F8E2F891BC0
:101AD0008417D0F36E01BFE4CB0ED11CF6018081D8
:101AE00091817E01FFE0EF0EF11CDC01ED91FC9194
:101AF000465F0480F581E02D00E020E030E0B70192
:101B00000995811111C0F60180819181DC01ED916F
:101B1000FC910680F781E02D28EE33E040E4B70128
:101B2000099581E09F85911180E0DF91CF910F9120
:101B3000FF90EF90DF90CF90BF90AF900895AF925D
:101B4000BF92CF92DF92EF92FF920F93CF93DF93EA
:101B5000EC015A0180E48F8781E0888B80E3898BD8
:101B60006A8B6E012FE4C20ED11CD6018D919C911F
:101B70007E01BFE0EB0EF11CDC01ED91FC910480D5
:101B8000F581E02D00E020E030E044E0B701099568
:101B9000882311F080E01AC0F60180819181DC0178
:101BA000ED91FC910680F781E02D28EE33E040E4D2
:101BB000B70109958F858111EDCFFE01709680E107
:101BC000D50101900D928A95E1F781E0DF91CF91E7
:101BD0000F91FF90EF90DF90CF90BF90AF9008955E
:101BE000AF92BF92CF92DF92EF92FF920F93CF937B
:101BF000DF93EC016A01603410F080E03BC080E4C8
:101C00008F8781E0888B80E3898B6A8B5E012FE46C
:101C1000A20EB11CD5018D919C917E01BFE0EB0E0F
:101C2000F11CDC01ED91FC910480F581E02D00E0D8
:101C300020E030E044E0B70109958111DECFF501E5
:101C400080819181DC01ED91FC910680F781E02D8E
:101C500028EE33E040E4B70109958F858111CDCF9F
:101C600088899989AA89BB89F60180839183A28397
:101C7000B38381E0DF91CF910F91FF90EF90DF90E0
:101C8000CF90BF90AF9008951F920F920FB60F9212
:101C900011242F933F938F939F93AF93BF93809182
:101CA000880190918901A0918A01B0918B013091B6
:101CB0009001232F2D5F2D3720F40196A11DB11D1A
:101CC00005C0232F2A570296A11DB11D2093900114
:101CD0008093880190938901A0938A01B0938B012E
:101CE00080918C0190918D01A0918E01B0918F0116
:101CF0000196A11DB11D80938C0190938D01A0933D
:101D00008E01B0938F01BF91AF919F918F913F91C1
:101D10002F910F900FBE0F901F9018950F931F9348
:101D20009FB7F89400918C0110918D0120918E0144
:101D300030918F0186B5A89B06C08F3F21F00F5FC1
:101D40001F4F2F4F3F4F9FBF322F212F102F0027A4
:101D5000080F111D211D311D42E0000F111F221F10
:101D6000331F4A95D1F7B801C9011F910F9108950A
:101D7000CF92DF92EF92FF92CF93DF936B017C01C2
:101D80000E948E0EEB010EC00E948E0E6C1B7D0B0E
:101D9000683E734038F081E0C81AD108E108F108C4
:101DA000C851DC4FC114D104E104F10469F7DF919B
:101DB000CF91FF90EF90DF90CF900895789484B505
:101DC000826084BD84B5816084BD85B5826085BD37
:101DD00085B5816085BDEEE6F0E08081816080831D
:101DE000E1E8F0E010828081826080838081816000
:101DF0008083E0E8F0E0808181608083E1EBF0E0C7
:101E0000808184608083E0EBF0E08081816080836A
:101E1000EAE7F0E080818460808380818260808353
:101E20008081816080838081806880831092C1007E
:101E30000895833069F028F48130A1F0823011F5E3
:101E400014C08630B1F08730C1F08430D9F404C0BA
:101E5000809180008F7703C0809180008F7D809378
:101E60008000089584B58F7702C084B58F7D84BDCE
:101E700008958091B0008F7703C08091B0008F7D6E
:101E80008093B0000895CF93DF9390E0FC01EA5275
:101E9000FE4F4491FC01E651FE4F8491882341F1AD
:101EA00090E0880F991FFC01E85FFD4F2591349168
:101EB000D90182509E4FFC0185919491C82FD92F52
:101EC0009FB7F8948C91611106C0409584238C9340
:101ED0008881842308C0623041F4242F2095822316
:101EE0008C938881842B888302C0842B8C939FBF22
:101EF000DF91CF9108950F931F93CF93DF931F929C
:101F0000CDB7DEB7282F30E0F901EE53FE4F8491B4
:101F1000F901EA52FE4F1491F901E651FE4F049186
:101F20000023D1F0882321F069830E94190F698171
:101F3000E02FF0E0EE0FFF1FE250FE4F85919491ED
:101F4000DC019FB7F8948C91611103C01095812337
:101F500001C0812B8C939FBF0F90DF91CF911F9178
:101F60000F9108950C94DF140C947A15CF92DF92A0
:101F7000EF92FF920F931F93CF93DF936C01EB01CE
:101F80007A01E60EF71E00E010E00BC06991D60161
:101F9000ED91FC910190F081E02DC6010995080FAB
:101FA000191FCE15DF0591F7C801DF91CF911F9161
:101FB0000F91FF90EF90DF90CF900895DB010D908F
:101FC0000020E9F7AD0141505109461B570BDC01D8
:101FD000ED91FC910280F381E02D0994EF92FF9244
:101FE0000F931F93CF93DF937C01EB0100E010E090
:101FF000FE0121966491662351F0F701A081B18121
:10200000ED91FC91C7010995080F191FF1CFC80187
:10201000DF91CF911F910F91FF90EF900895AF92B4
:10202000BF92CF92DF92EF92FF920F931F93CF93C5
:10203000DF937C016B0100E010E0C0E0D0E011C054
:10204000D701ED91FC91A080B180B801C6010E943A
:10205000A212682FC701F5010995C80FD91F0F5F9C
:102060001F4FD60114968D919C911597081719074B
:1020700038F3CE01DF91CF911F910F91FF90EF9038
:10208000DF90CF90BF90AF9008950C94DE0FDC01ED
:10209000ED91FC910190F081E02D09940F931F9335
:1020A000CF93DF93EC016DE00E9447108C016AE052
:1020B000CE010E9447109C01200F311FC901DF9102
:1020C000CF911F910F9108950F931F93CF93DF939B
:1020D000EC010E94EE0F8C01CE010E944E109C017B
:1020E000200F311FC901DF91CF911F910F910895EA
:1020F0004F925F926F927F929F92AF92BF92CF92D8
:10210000DF92EF92FF920F931F93CF93DF93CDB7A0
:10211000DEB7A1970FB6F894DEBF0FBECDBF5C014E
:102120006A017B01922E19A281E0821710F08AE0E9
:10213000982E8E010F5D1F4F492C512C612C712C54
:10214000C701B601A30192010E94B7148C2D929E83
:1021500080191124015011098A3014F4805D01C0E6
:10216000895CF801808369017A01C114D104E1041A
:10217000F10431F7B801C5010E94DE0FA1960FB638
:10218000F894DEBF0FBECDBFDF91CF911F910F91AD
:10219000FF90EF90DF90CF90BF90AF909F907F9097
:1021A0006F905F904F9008952115310541F4DC0147
:1021B000ED91FC910190F081E02D642F09940C9435
:1021C00078100F931F93CF93DF93EC010E94D410EC
:1021D0008C01CE010E944E109C01200F311FC901BD
:1021E000DF91CF911F910F9108950F931F93CF937C
:1021F000DF93EC019A01462F50E060E070E00E940E
:10220000D4108C01CE010E944E109801280F391F66
:10221000C901DF91CF911F910F910895CF92DF9265
:10222000EF92FF920F931F93CF93DF93EC016A011C
:102230007B012115310579F4E881F9810190F08164
:10224000E02D642FDF91CF911F910F91FF90EF90C0
:10225000DF90CF9009942A30310519F477FD0EC034
:102260002AE0B701A601CE01DF91CF911F910F9116
:10227000FF90EF90DF90CF900C9478106DE20E9469
:1022800047108C0144275527BA014C195D096E0986
:102290007F092AE0CE010E947810080F191FC8019B
:1022A000DF91CF911F910F91FF90EF90DF90CF9032
:1022B00008950F931F93CF93DF93EC019A01AB0125
:1022C000662757FD6095762F0E940E118C01CE0176
:1022D0000E944E109801280F391FC901DF91CF913C
:1022E0001F910F910895FC01808191810C947A15C2
:1022F000CF93DF93EC0188819981009711F00E94C0
:102300007A15198218821D821C821B821A82DF9123
:10231000CF9108950F931F93CF93DF93EC018B011F
:102320006F5F7F4F888199810E941616009731F068
:10233000998388831B830A8381E001C080E0DF9159
:10234000CF911F910F910895CF93DF93EC01888176
:102350009981892B31F08A819B818617970708F034
:102360000CC0CE010E948A11882349F08C819D8186
:10237000892B19F4E881F981108281E001C080E0A5
:10238000DF91CF910895EF92FF920F931F93CF9318
:10239000DF93EC017B018A01BA010E94A411811133
:1023A00004C0CE010E94781107C01D830C83B701C1
:1023B000888199810E94FC16CE01DF91CF911F91F7
:1023C0000F91FF90EF900895DC0111961C921E92E0
:1023D00013961C921E92129715961C921E92149799
:1023E00016961C926115710559F0DB010D900020C5
:1023F000E9F7AD0141505109461B570B0C94C3112D
:102400000895CF93DF93EC01FB018617970761F0E6
:10241000608171816115710529F0448155810E94A7
:10242000C31102C00E947811CE01DF91CF910895AF
:10243000CF93DF93D82FC92F6115710561F0DB01B0
:102440000D900020E9F7AD0141505109461B570B93
:102450000E94C31102C00E9478118D2F9C2FDF9122
:10246000CF9108950F931F93CF93DF93CDB7DEB72E
:1024700061970FB6F894DEBF0FBECDBF8C01CB01C4
:10248000F801118210821382128215821482168240
:1024900050E0BE016F5F7F4F0E940317BE016F5F68
:1024A0007F4FC8010E94181261960FB6F894DEBFE4
:1024B0000FBECDBFDF91CF911F910F910895EF9285
:1024C000FF920F931F93CF93DF93EC017B010C815D
:1024D0001D816115710511F480E016C0411551058B
:1024E00091F0040F151FB8010E94A4118823A1F3D5
:1024F000288139818C819D81B701820F931F0E94B1
:10250000FC161D830C8381E0DF91CF911F910F9109
:10251000FF90EF900895FB014481558160817181A6
:102520000C945F126115710559F0DB010D900020CC
:10253000E9F7AD0141505109461B570B0C945F124E
:1025400080E00895FC01248135816217730748F407
:1025500080819181009729F0FC01E60FF71F8081AF
:10256000089580E00895CF93DF93FC01C081D1816D
:10257000209739F409C0992787FD90950E94DE16AF
:10258000899388818111F7CFDF91CF9108950E94BF
:10259000DE0E0E943601C3EAD3E10E944201209779
:1025A000E1F30E94A313F9CFFC0184859585FC011A
:1025B000E05CFF4F20813181FC01EE5BFF4F8081A9
:1025C0009181281B390B2F733327C9010895FC0112
:1025D00084859585FC01E05CFF4F40815181FC01C1
:1025E000EE5BFF4F208131814217530741F001908C
:1025F000F081E02DE80FF91F208130E002C02FEFBD
:102600003FEFC9010895FC0184859585FC01E05CDC
:10261000FF4F40815181FC01EE5BFF4F20813181F2
:102620004217530781F0A081B181A80FB91F8C9187
:10263000208131812F5F3F4F2F73332731832083D8
:10264000282F30E002C02FEF3FEFC9010895FC01B1
:1026500086859785FC01E05CFF4FDC01AE5BBF4FD8
:10266000408151812D913C91119742175307C1F739
:102670000895CF93DF93FC0186859785DC01A05CEC
:10268000BF4F2D913C9111972F5F3F4F2F733327F1
:10269000EC01CE5BDF4F4881598124173507D9F310
:1026A0000D90BC91A02DA80FB91F6C93A685B7857E
:1026B000A05CBF4F11963C932E93A689B7892C91AD
:1026C00081E090E0058C02C0880F991F0A94E2F720
:1026D000282B2C9381E090E0DF91CF91089508950D
:1026E0001F920F920FB60F9211242F933F934F9387
:1026F0008F939F93EF93FF934091C6008091340294
:102700009091350201968F7399272091360230916E
:1027100037028217930759F0E0913402F0913502A5
:10272000EC50FE4F40839093350280933402FF912A
:10273000EF919F918F914F913F912F910F900FBEED
:102740000F901F90189581E991E00E94D412892B77
:1027500011F00C946F1308951F920F920FB60F9201
:1027600011242F933F938F939F93EF93FF93209187
:10277000F0013091F1018091F2019091F30128175D
:10278000390731F48091C1008F7D8093C10014C05E
:10279000E091F201F091F301E055FE4F208180912C
:1027A000F2019091F30101968F7399279093F301B1
:1027B0008093F2012093C600FF91EF919F918F913A
:1027C0003F912F910F900FBE0F901F901895CF92B1
:1027D000DF92EF92FF92CF93DF93EC016A017B01CE
:1027E000411581EE580761057105F9F0EC89FD8905
:1027F00081E090E00E8C02C0880F991F0A94E2F7E6
:10280000808360E079E08DE390E0A70196010E946B
:10281000B71421503109410951095695479537950B
:102820002795211580E1380798F0EC89FD89108201
:1028300060E874E88EE190E0A70196010E94B71469
:1028400021503109410951095695479537952795EA
:10285000E889F9893083EA89FB892083EE89FF8939
:10286000408181E090E09C010A8C02C0220F331F5E
:102870000A94E2F7422B4083EE89FF8940819C0154
:102880000B8C02C0220F331F0A94E2F7422B4083C5
:10289000EE89FF8940819C010C8C02C0220F331FFE
:1028A0000A94E2F7422B4083EE89FF8920810D8C48
:1028B00002C0880F991F0A94E2F7809582238083D3
:1028C000DF91CF91FF90EF90DF90CF90089510921D
:1028D00094011092930188EE93E0A0E0B0E0809321
:1028E000950190939601A0939701B09398018AE681
:1028F00091E0909392018093910184EF91E0909305
:102900009E0180939D0180EB91E09093A0018093C4
:102910009F0185EC90E09093A2018093A10184EC4B
:1029200090E09093A4018093A30180EC90E09093B9
:10293000A6018093A50181EC90E09093A80180937B
:10294000A70186EC90E09093AA018093A90184E00E
:102950008093AB0183E08093AC0187E08093AD016D
:1029600085E08093AE0181E08093AF010895A1E2FC
:102970001A2EAA1BBB1BFD010DC0AA1FBB1FEE1FF9
:10298000FF1FA217B307E407F50720F0A21BB30B44
:10299000E40BF50B661F771F881F991F1A9469F7C0
:1029A00060957095809590959B01AC01BD01CF011C
:1029B0000895EE0FFF1F0590F491E02D09940F93F9
:1029C0001F93CF93DF938230910510F482E090E063
:1029D000E0913A02F0913B0220E030E0C0E0D0E02C
:1029E00023C04081518148175907A8F0481759075B
:1029F00061F482819381209719F09B838A832EC092
:102A000090933B0280933A0229C02115310529F0A9
:102A10004217530710F0A90102C0BE01DF01028175
:102A20001381EF019A01F8013097D9F6211531058C
:102A300009F1281B390B2430310590F412968D9141
:102A40009C9113976115710521F0FB01938382839B
:102A500004C090933B0280933A02FD01329644C039
:102A6000FD01E20FF31F81939193225031092D93C1
:102A70003C933AC02091380230913902232B41F423
:102A800020910201309103013093390220933802E2
:102A900020910001309101012115310541F42DB73C
:102AA0003EB74091040150910501241B350BE09184
:102AB0003802F0913902E217F307A0F42E1B3F0B06
:102AC0002817390778F0AC014E5F5F4F24173507A0
:102AD00048F04E0F5F1F50933902409338028193A4
:102AE000919302C0E0E0F0E0CF01DF91CF911F9120
:102AF0000F910895EF92FF920F931F93CF93DF935F
:102B0000009709F48EC0DC01129713961C921E9256
:102B10001297E0903A02F0903B02E114F10489F43C
:102B20002D913C911197280F391F80913802909177
:102B300039028217930789F5B0933902A0933802BE
:102B400070C0E70120E030E001C0EA01CA17DB07EE
:102B500038F44A815B819E0141155105B1F722C0CD
:102B6000AC0142505109FA01D383C2830081118123
:102B7000BC01600F711F6C177D0761F4688179815A
:102B8000600F711F6E5F7F4F718360836A817B81ED
:102B9000738362832115310529F4B0933B02A0931E
:102BA0003A023FC0F901B383A283E90149915991E7
:102BB000C40FD51FAC17BD0771F4DC019E918E9137
:102BC000840F951F02969183808312968D919C911C
:102BD000139793838283A0E0B0E002C0D7017C0109
:102BE000F701828193810097C9F7C701029620817E
:102BF0003181820F931F20913802309139022817BA
:102C0000390779F4109729F410923B0210923A0296
:102C100004C013961C921E921297F0923902E09211
:102C20003802CDB7DEB7E6E00C946517A0E0B0E05F
:102C3000ECE1F6E10C944317EC01009729F4CB0189
:102C40000E94DF14EC01B4C0DC01A60FB71FFC0129
:102C50003297AE17BF0718F4C0E0D0E0A9C00081DA
:102C6000118106171707B0F00530110508F4A0C050
:102C7000C80104978617970708F49AC002501109F3
:102C8000061B170B0D931D9371836083CD010E946A
:102C90007A158EC06B01C01AD10A7C01E00EF11EBC
:102CA000E0913A02F0913B0220E030E080E090E0D9
:102CB00048C0EE15FF05D1F580809180540142E0B7
:102CC000A40EB11CAC14BD0488F17401EC18FD080D
:102CD000670122E0C20ED11C9E012250310945E05D
:102CE000C416D10478F04281538113965C934E93BD
:102CF00012971196FC92EE92F901718360833A2F3C
:102D00002B2F09C00E5F1F4F080D191DD9010D9300
:102D10001C9332812381009721F0FC0132832383AD
:102D200047C030933A0220933B0242C08081918198
:102D30002817390708F49C0152814381CF01E52F00
:102D4000F42F309709F0B5CF809138029091390275
:102D50008E159F05F1F426173707D8F480910001EE
:102D600090910101009741F48DB79EB72091040125
:102D700030910501821B930BA817B90708F06CCF9F
:102D8000B0933902A0933802FE01329771836083B9
:102D90000FC0CB010E94DF147C01009709F45CCFC7
:102DA000A801BE010E94F316CE010E947A15E70128
:102DB000CE01CDB7DEB7ECE00C945F17911108950A
:102DC00081568A5108F4805285580895FB01DC0130
:102DD00004C08D910190801921F441505040C8F7F2
:102DE000881B990B0895FB01DC0102C001900D9234
:102DF00041505040D8F70895FB01DC0101900D923D
:102E00000020E1F70895FB019F01423074F0453244
:102E100064F4642F77270E942917805D8A330CF0B1
:102E2000895D8193CB010097A1F71082C9010C94B1
:102E30001917DC01FC01672F71917723E1F73297B5
:102E400004C07C916D9370836291AE17BF07C8F385
:102E50000895AA1BBB1B51E107C0AA1FBB1FA617E1
:102E6000B70710F0A61BB70B881F991F5A95A9F733
:102E700080959095BC01CD0108952F923F924F927D
:102E80005F926F927F928F929F92AF92BF92CF92FA
:102E9000DF92EF92FF920F931F93CF93DF93CDB703
:102EA000DEB7CA1BDB0B0FB6F894DEBF0FBECDBF7B
:102EB00009942A88398848885F846E847D848C844C
:102EC0009B84AA84B984C884DF80EE80FD800C8155
:102ED0001B81AA81B981CE0FD11D0FB6F894DEBF38
:102EE0000FBECDBFED01089512E0C6E1D2E004C0EF
:102EF000FE010E94DB142296C831D107C9F7F8946D
:022F0000FFCF01
:102F020000003C0220000000FF00FF00D3F7D3F7CF
:102F1200D3F77B224944223A2200227D000000009E
:102F220000B1019E013803EC01556E6B6E6F776E36
:102F32000030004E464320466F72756D2054797002
:102F420065203200556E6B6E6F776E20544C5620A2
:102F5200004552524F52004D696661726520436CC2
:102F6200617373696300000000003913B60FD41255
:062F72000313E712271310
:00000001FF
